:100000000C943F000C9467000C9467000C946700FC
:100010000C9467000C9467000C9467000C946700C4
:100020000C9467000C9467000C9467000C946700B4
:100030000C9467000C9467000C9467000C943904CE
:100040000C9467000C9467000C9467000C94670094
:100050000C9467000C9467000C9467000C94670084
:100060000C9494040C9445050C9467000C94670060
:100070000C9467000C9467000C946700EF05112442
:100080001FBECFEFCDBFDFE3DEBF18E3A0E0B8E3D4
:10009000E4E4F1E102C005900D92AE34B107D9F766
:1000A00029E3AEE4B8E301C01D92AE31B207E1F737
:1000B00010E0CFE3D0E004C02197FE010E94550874
:1000C000CE33D107C9F70E9463060C947E080C94C6
:1000D000000090E0FC01E45DFE4620812F3F51F0DE
:1000E000885C9E46DC01EC91B0E2EB9FF0011124AC
:1000F000FC5F218308952FB7F8946091CD387091FB
:10010000CE388091CF389091D0382FBF0895E091AC
:10011000AD38F091AE38309741F01092AA38109275
:10012000A93809958091A938089580E00895E09153
:10013000AF38F091B038309759F03091AC38209109
:10014000AB38321728F01092AC388093AB38099452
:100150000895E0E1F8E091859066918792E09093B0
:1001600068388093643810926538089581E08093F0
:1001700065381092643890911B0891FF10C010925E
:100180006638E0916038F09161380995809358386D
:1001900085E08093683883E080931A080895109270
:1001A00067388093623886E0F4CF0895E091AC38E8
:1001B0008091AB38E81730F4F0E0E759F74C8081D4
:1001C00090E008958FEF9FEF08959091AC38809163
:1001D000AB382FEF3FEF981748F4E92FF0E0E759DD
:1001E000F74C208130E09F5F9093AC38C9010895AF
:1001F0008091AB389091AC38891B990B0895CF92C0
:10020000DF92EF92FF920F931F93CF93DF937C01C6
:100210008A01EB016B01C40ED51ECC15DD0551F032
:100220006991D701ED91FC910190F081E02DC7011A
:100230000995F3CFC801DF91CF911F910F91FF90E6
:10024000EF90DF90CF9008952091A938203240F0B0
:1002500021E030E0FC012283338390E080E00895C8
:100260008091AA38E82FF0E0E757F74C60838F5F62
:100270008093AA388093A93881E090E00895682F90
:1002800081ED98E30C9424010E947B006093DD389B
:100290007093DE388093DF389093E0381092B33853
:1002A0001092B43880E280930604E1EFF8E380E432
:1002B00098E3838794871682158616868BE090E0F4
:1002C0008093B1389093B238089580E28093060409
:1002D000E1EFF8E38AE398E3838794871682158633
:1002E00016868DE090E08093B1389093B2380895EF
:1002F000E1EFF8E384E398E3838794871682158619
:1003000016861092B3381092B4380E947B00609326
:10031000E5387093E6388093E7389093E83889E0C1
:1003200090E08093B1389093B2380895E1EFF8E30C
:1003300080E298E38387948716821586168687E085
:1003400090E08093B1389093B238089580E2809322
:100350000504E1EFF8E384E198E38387948716824C
:100360001586168685E090E08093B1389093B23878
:1003700008952091B9383091BA388091123890910F
:1003800013388217930738F484E090E08093B138F3
:100390009093B23808958091B7389091B8388F33E0
:1003A0009140C0F78CE090E0F1CFE1EFF8E380E01E
:1003B00098E38387948716821586168683E090E0FB
:1003C0008093B1389093B23808958091B738909166
:1003D000B8388F33914030F082E090E08093B138AC
:1003E0009093B238089580E2809306048FEF809353
:1003F0004E381092B3381092B4380E947B0060934C
:10040000E9387093EA388093EB389093EC38E1EF59
:10041000F8E38AE398E38387948716821586168625
:1004200081E090E08093B1389093B23808950F93B3
:100430001F93CF93DF938C01C1E0C093B63881ED59
:1004400098E30E94E50080934E38023011053CF09D
:100450008231C9F1C8F4803119F1813179F1C0914B
:10046000AB388091AC38C81BDD0B09F456C010E0E6
:1004700000E00C171D070CF050C081ED98E30E94BE
:10048000E5000F5F1F4FF5CF8431D1F160F180336C
:1004900031F781ED98E30E94E500C0934F38DFCF3C
:1004A00081ED98E30E94E500892B21F080E28093A2
:1004B0000504D5CF80E280930604D1CF81ED98E387
:1004C0000E94E500CCCF81ED98E30E94E50024E690
:1004D000AC01249FC001259F900D112480934638C4
:1004E00090934738BCCF81ED98E30E94E500880FD8
:1004F000991F880F991F8093123890931338AFCFAC
:1005000081ED98E30E94E500880F991F880F991FDD
:100510008093323890933338A2CFDF91CF911F91DF
:100520000F9108950F931F93CF93DF93EC010E94D7
:100530007B00088119812A813B81601B710B820B32
:10054000930BDF91CF911F910F910895E0914E3859
:10055000E150E23208F071C0F0E0EF54FD4F0C942E
:100560005508D302D7021D031D031D031D031D03E0
:100570001D031D031D031D031D031D031D031D037B
:10058000DA02E102E402EE02F702FC0201031D03BB
:100590001D031D031D031D031D031D031D031D035B
:1005A000100315031A0390E080E00C943F0184E0EF
:1005B00090E0FBCF8091080485FB882780F990E0CC
:1005C000F4CF81E090E0F1CF8091B3389091B438CE
:1005D00064E670E00E941F08CB01E7CF60911238FB
:1005E00070911338769567957695679515C06091EB
:1005F000323870913338F6CF8091B1389091B2385B
:10060000D4CF8DEE98E30E94920224E630E040E0E1
:1006100050E00E943308622F81ED98E30C9424018E
:100620006091B7387091B838DDCF6091B93870916A
:10063000BA38D8CF82E290E0B8CF8FEF90E0B5CF54
:100640008DED98E30E949202613D7740810591050E
:1006500020F01092B1381092B238089581EE98E3EC
:100660000E949202693873418105910520F0109231
:10067000B1381092B238089589EE98E30E94920240
:10068000693E73408105910538F08CE090E08093DD
:10069000B1389093B238089585EE98E30E949202A3
:1006A00061367A4E8105910580F708950F931F9367
:1006B000CF93DF93C091B338D091B4382097C1F075
:1006C0008DEE98E30E9492028E01DD0F220B330B18
:1006D000061717072807390758F48AE090E0809337
:1006E000B1389093B238DF91CF911F910F91089557
:1006F00080914F38882329F010924F3888E090E09D
:10070000EECF8091B7389091B8388034914018F08E
:1007100084E090E0E4CF2091B9383091BA388091EC
:100720003238909133382817390718F48CE090E06C
:10073000D6CF89EE98E30E949202693E734081050C
:100740009105A0F7D0CF0F931F93CF93DF938091A4
:10075000B538C091B338D091B438882391F08AE18C
:1007600098E3209711F484E198E38093FC38909308
:10077000FD381092F7381092FE381092FF38109220
:10078000B5382097C1F08DEE98E30E9492028E0159
:10079000DD0F220B330B061717072807390758F40C
:1007A0008AE090E08093B1389093B238DF91CF9196
:1007B0001F910F91089589EE98E30E949202693E7D
:1007C00073408105910518F08CE090E0EBCF8091AB
:1007D000B7389091B8388F33914040F786E090E079
:1007E000E1CF0F931F93CF93DF93EC010B851C8513
:1007F000AD85BE8598010E945B08DC01CB012FE02E
:10080000B595A795979587952A95D1F72E81081BC1
:10081000190B21118C01CE0107960E94920230E043
:1008200020E0061717072807390780F40E947B008D
:100830006F83788789879A878E8191E089278E8355
:100840009C81E881F981882331F09583DF91CF91F4
:100850001F910F9108959683F9CFCF93DF93EC0109
:100860000E947B00688379838A839B83DF91CF9189
:1008700008951F920F920FB60F9211242F933F935A
:100880004F935F936F938F939F93AF93BF93809199
:10089000CD389091CE38A091CF38B091D0384091DA
:1008A000CB385091CC389A012C5E3F4F283E63E004
:1008B000360798F50196A11DB11D2093CB383093D2
:1008C000CC388093CD389093CE38A093CF38B09366
:1008D000D0388091C7389091C838A091C938B0916C
:1008E000CA380196A11DB11D8093C7389093C838AE
:1008F000A093C938B093CA3881E080938D0ABF9124
:10090000AF919F918F916F915F914F913F912F91F7
:100910000F900FBE0F901F9018959A01245D3340E1
:100920000296A11DB11DC9CF1F920F920FB60F9253
:1009300011242F933F934F935F936F937F938F93E4
:100940009F93AF93BF93CF93EF93FF93C0911B08F7
:10095000C2FF0AC010926738109266381092583859
:1009600084E00E94A90014C0C6FF2FC080916238A5
:10097000813051F480916738E0915C38F0915D38B6
:1009800090E0099510926238C0FF14C00E94B60032
:10099000FF91EF91CF91BF91AF919F918F917F91F7
:1009A0006F915F914F913F912F910F900FBE0F90DC
:1009B0001F90189580E480931B0881E00E94A90095
:1009C00080911B0885FFE4CFE1CFC7FF5CC0C3FF68
:1009D00008C010926738109266381092583883E039
:1009E000C0CF8091190880668093190880911B08F8
:1009F00081FF2CC080916638882349F080911B08C4
:100A000084FF05C082E080931A0881E0AACF90910C
:100A10006638809158389817A8F4E091663880912C
:100A20005E3890915F38E80FF92FF11D8081809337
:100A30001D08809166388F5F8093663883E08093CD
:100A40001A08A6CF82E080931A088BCF909167385E
:100A500080915938981790F480911D08E09167387B
:100A600020915A3830915B38E20FF32FF11D8083CB
:100A7000809167388F5F80936738E0CF86E08093FE
:100A80001A0882E06ECF85E06CCF1F920F920FB6EE
:100A90000F9211242F938F939F93EF93FF93809145
:100AA0001508982F9C70C1F08091150894E082FF82
:100AB00093E0909357388093150881E080936838CD
:100AC00010925638FF91EF919F918F912F910F9037
:100AD0000FBE0F901F90189586FF46C02091523888
:100AE000909154388091150884FF10C0809153383C
:100AF000882351F083E08093140885E08093573871
:100B00001092563881E02BC081E0F5CF80915138AA
:100B1000821760F4E0915138F0E0808180931808EA
:100B2000809151388F5F80935138CCCF8091553868
:100B3000891748F484E08093683880915038816048
:100B400080931708BFCF80915338882359F083E0F2
:100B50008093140881E08093573810925638809320
:100B60006838B0CF81E0F4CF87FF37C09091553817
:100B7000809154389817A8F480911808E09155385E
:100B8000F0E08083809155388F5F80935538909145
:100B90005438809155388917C0F482E08093140846
:100BA00091CF80915338882371F087E080931408A7
:100BB00082E0809357381092563881E080936838ED
:100BC000109254387FCF85E0F1CF8091533888233D
:100BD00011F087E0BDCF85E0BBCF86E08FCFEF92ED
:100BE000FF920F931F93CF93DF93E1EDF8E312820F
:100BF000138288EE93E0A0E0B0E084839583A6831F
:100C0000B78380E291E98083918385EE98E30E9427
:100C10002D0481EE98E30E942D048DED98E30E944F
:100C20002D04CFE0D9E38AE090E08A839B831E8283
:100C300086E199E30E942D0400E014E00883198303
:100C400088E0E82EF12CEC82FD8288EC90E08B8726
:100C50009C871D861E86C0E0D9E31A821B821E82F5
:100C600087E099E30E942D040883198380E190E0D6
:100C70008C839D8382ED90E08B879C871D861E86EA
:100C8000C1EFD8E3EA82FB821E8288EF98E30E94DC
:100C90002D040883198382E090E08C839D8388E48F
:100CA00098E38B879C871D861E868DEE98E30E94B5
:100CB0002D0489EE98E3DF91CF911F910F91FF9062
:100CC000EF900C942D0488ED90E084BF9093610028
:100CD00083E5809302068EE08093050680E2809390
:100CE000030680910006816080930006C1E0C093F6
:100CF000030A8EEF8093260A8093270A80E8809368
:100D0000280A80932A0A80932C0A8093290A8093C8
:100D10002B0A80932D0A9BE09093000A2DEF31E07F
:100D20002093AE0A3093AF0AC0938C0A1092810AC6
:100D30008093820A81E18093800A78948091A00058
:100D40008F7880618093A000809102068F78806404
:100D50008093020681E00E9469008AE00E94690097
:100D600080E00E94690088E00E9469001092AC381F
:100D70001092AB381092AA381092A9388091683836
:100D8000811119C082E08093683810926738109200
:100D90006638109265381092643810926338109259
:100DA00062388AED80931C0810921E0881EE8093B1
:100DB0001908C093130887E890E0809360389093F7
:100DC000613889E898E380935E3890935F3887E9CB
:100DD00090E080935C3890935D3889E698E3809347
:100DE0005A3890935B3880E28093593886EA92E0D3
:100DF0008093AD389093AE3887E192E08093AF381E
:100E00009093B03877247394A7E05A2EB6E04B2E17
:100E100000E010E066246394E12CC0E4FC2EC12CB9
:100E2000D0E8DD2EAA24AA94BA2C8091BF38811173
:100E300006C08BEB98E30E942D046092BF388BEBC9
:100E400098E30E949202603371058105910508F4D0
:100E50004BC00E947B006093BB387093BC3880937A
:100E6000BD389093BE385092060670920806809165
:100E70000B0680FFFCCFC0911006D0911106C093E5
:100E8000B938D093BA38409206067092080680911D
:100E90000B0680FFFCCF8090100690901106809288
:100EA000B7389092B8388091280481FF0AC00E9418
:100EB0007B006093E9387093EA388093EB38909325
:100EC000EC38F5E0CC0FDD1FFA95E1F7C0930D3952
:100ED000D0930E3920E7821621E0920608F499C0DB
:100EE000C0921C39D0921D398091B638882301F107
:100EF0008091463890914738019671F06092B538EC
:100F000080914638909147388093B3389093B438A5
:100F1000A0924638B09247380E947B006093ED382B
:100F20007093EE388093EF389093F0381092B63883
:100F30008FE099E30E94F10380E099E30E94F103BE
:100F400088EF98E30E949202AB01BC012091FE3829
:100F50003091FF38220F331F8091FC389091FD387B
:100F6000820F931FFC0180819181092E000CAA0B36
:100F7000BB0B84179507A607B707A0F50E947B0057
:100F80006093F8387093F9388093FA389093FB386F
:100F90008091FE389091FF3801968093FE389093AF
:100FA000FF38880F991F2091FC383091FD38820F4F
:100FB000931FFC0180819181019631F41092FE38DB
:100FC0001092FF381092F7388091F7388725809378
:100FD000F738E091F138F091F2389091F5388823A4
:100FE00039F195838091B1389091B2388E30910566
:100FF0000CF5880F991FFC01E050FF460190F0812D
:10100000E02D09950115110509F40FCF0E9400008C
:101010000CCF80E4881681E0980628F0E0921C3915
:10102000F0921D3961CF10921C3910921D395CCF9E
:101030009683D8CF1092B1381092B238E3CF97FB95
:10104000072E16F4009407D077FD09D00E946A0895
:1010500007FC05D03EF4909581959F4F08957095BB
:1010600061957F4F0895A1E21A2EAA1BBB1BFD01BB
:101070000DC0AA1FBB1FEE1FFF1FA217B307E40777
:10108000F50720F0A21BB30BE40BF50B661F771FCF
:10109000881F991F1A9469F76095709580959095AF
:1010A0009B01AC01BD01CF010895EE0FFF1F05901C
:1010B000F491E02D0994A29FB001B39FC001A39FBA
:1010C000700D811D1124911DB29F700D811D112481
:1010D000911D0895AA1BBB1B51E107C0AA1FBB1F8E
:1010E000A617B70710F0A61BB70B881F991F5A95B4
:1010F000A9F780959095BC01CD010895F894FFCF94
:10110000F301E501D501B901A601A3039601560338
:1011100078013C034401200365012E030000000018
:101120002401FF00F800E500D600D5001020408023
:10113000080402010204080100000000010101018D
:0411400000000000AB
:101144008A023200320032003200320032003200B1
:10115400FFFF2402E8030000FFFFB6033200FFFF95
:1011640032003200320032003200320032008A0291
:10117400FFFF6D01C800C800FFFF3200B603FFFF88
:0E11840032003200FFFFFFFF0208D307FFFF1B
:00000001FF
